:100000000C9434000C9449000C9449000C94490061
:100010000C9449000C9449000C9449000C9449003C
:100020000C9449000C9449000C9449000C9449002C
:100030000C9449000C9449000C9449000C9449001C
:100040000C9449000C9449000C9449000C9449000C
:100050000C9449000C9449000C9449000C944900FC
:100060000C9449000C94490011241FBECFEFD8E036
:10007000DEBFCDBF11E0A0E0B1E0E2E4F1E002C0FC
:1000800005900D92A830B107D9F70E944B000C944F
:100090009F000C940000EF92FF920F931F93DF9349
:1000A000CF93CDB7DEB727970FB6F894DEBF0FBE5C
:1000B000CDBF83E090E00E947700DE011196E0E082
:1000C000F1E087E001900D928150E1F77E01089404
:1000D000E11CF11C08EB10E0C7010E948C0080E1DC
:1000E00097E2F8013197F1F70197D9F7F5CF90939F
:1000F000C5008093C40086E08093C200E1ECF0E08C
:100100008081886080830895982F8091C00085FF4A
:10011000FCCF9093C6000895AC0120E030E0FA01D6
:10012000E20FF31FE0818091C00085FFFCCFE093D8
:10013000C6002F5F3F4F2730310589F70895F894A7
:02014000FFCFEF
:080142000102030405060000A0
:00000001FF
