:100000000C9434000C943E000C943E000C943E0082
:100010000C943E000C943E000C943E000C943E0068
:100020000C943E000C943E000C943E000C943E0058
:100030000C943E000C943E000C943E000C943E0048
:100040000C943E000C943E000C943E000C943E0038
:100050000C943E000C943E000C943E000C943E0028
:100060000C943E000C943E0011241FBECFEFD8E04C
:10007000DEBFCDBF0E9440000C94C9000C9400006C
:10008000EF92FF920F931F93CF93DF93389A0E94C2
:10009000AF000E947B007B018C01C0E9D1E00E948F
:1000A0007B006E197F09800B910B615A7648814065
:1000B00090409CF020E931E0409A88E893E1F90112
:1000C0003197F1F70197D9F7409888E893E1F90162
:1000D0003197F1F70197D9F7EFCF88EE93E0FE0162
:1000E0003197F1F70197D9F7DACF89B186958695DF
:1000F0008095817008954A99FECF20E030E040E07D
:1001000050E067E170E05B9A89B190E09695879541
:1001100096958795A0E0B0E081709070A070B07067
:10012000062E04C0880F991FAA1FBB1F0A94D2F77E
:10013000282B392B4A2B5B2B5B98615070408FEF3B
:100140006F3F780701F75B9A5B98C901DA01A7FF57
:1001500003C09C01AD015F6FB901CA0108955298B7
:10016000539A5B980E947B000895CF93DF93EC0134
:100170004A9906C00E947B00688379838A839B83A7
:10018000DF91CF910895882311F05B9A08955B98D1
:060190000895F894FFCF72
:00000001FF
